{
	"contracts/sample.sol": {
		"EtherSender": {
			"abi": [
				{
					"inputs": [
						{
							"internalType": "address payable",
							"name": "_recipient",
							"type": "address"
						}
					],
					"name": "sendEther",
					"outputs": [],
					"stateMutability": "payable",
					"type": "function"
				}
			],
			"devdoc": {
				"kind": "dev",
				"methods": {},
				"version": 1
			},
			"evm": {
				"assembly": "    /* \"contracts/sample.sol\":59:283  contract EtherSender {... */\n  mstore(0x40, 0x80)\n  callvalue\n  dup1\n  iszero\n  tag_1\n  jumpi\n  0x00\n  dup1\n  revert\ntag_1:\n  pop\n  dataSize(sub_0)\n  dup1\n  dataOffset(sub_0)\n  0x00\n  codecopy\n  0x00\n  return\nstop\n\nsub_0: assembly {\n        /* \"contracts/sample.sol\":59:283  contract EtherSender {... */\n      mstore(0x40, 0x80)\n      jumpi(tag_1, lt(calldatasize, 0x04))\n      shr(0xe0, calldataload(0x00))\n      dup1\n      0x48c981e2\n      eq\n      tag_2\n      jumpi\n    tag_1:\n      0x00\n      dup1\n      revert\n        /* \"contracts/sample.sol\":87:280  function sendEther(address payable _recipient) public payable {... */\n    tag_2:\n      tag_3\n      0x04\n      dup1\n      calldatasize\n      sub\n      dup2\n      add\n      swap1\n      tag_4\n      swap2\n      swap1\n      tag_5\n      jump\t// in\n    tag_4:\n      tag_6\n      jump\t// in\n    tag_3:\n      stop\n    tag_6:\n        /* \"contracts/sample.sol\":180:181  0 */\n      0x00\n        /* \"contracts/sample.sol\":168:177  msg.value */\n      callvalue\n        /* \"contracts/sample.sol\":168:181  msg.value > 0 */\n      gt\n        /* \"contracts/sample.sol\":160:221  require(msg.value > 0, \"Ether amount must be greater than 0\") */\n      tag_8\n      jumpi\n      mload(0x40)\n      0x08c379a000000000000000000000000000000000000000000000000000000000\n      dup2\n      mstore\n      0x04\n      add\n      tag_9\n      swap1\n      tag_10\n      jump\t// in\n    tag_9:\n      mload(0x40)\n      dup1\n      swap2\n      sub\n      swap1\n      revert\n    tag_8:\n        /* \"contracts/sample.sol\":242:252  _recipient */\n      dup1\n        /* \"contracts/sample.sol\":242:261  _recipient.transfer */\n      0xffffffffffffffffffffffffffffffffffffffff\n      and\n        /* \"contracts/sample.sol\":242:272  _recipient.transfer(msg.value) */\n      0x08fc\n        /* \"contracts/sample.sol\":262:271  msg.value */\n      callvalue\n        /* \"contracts/sample.sol\":242:272  _recipient.transfer(msg.value) */\n      swap1\n      dup2\n      iszero\n      mul\n      swap1\n      mload(0x40)\n      0x00\n      mload(0x40)\n      dup1\n      dup4\n      sub\n      dup2\n      dup6\n      dup9\n      dup9\n      call\n      swap4\n      pop\n      pop\n      pop\n      pop\n      iszero\n      dup1\n      iszero\n      tag_12\n      jumpi\n      returndatasize\n      0x00\n      dup1\n      returndatacopy\n      revert(0x00, returndatasize)\n    tag_12:\n      pop\n        /* \"contracts/sample.sol\":87:280  function sendEther(address payable _recipient) public payable {... */\n      pop\n      jump\t// out\n        /* \"#utility.yul\":88:205   */\n    tag_14:\n        /* \"#utility.yul\":197:198   */\n      0x00\n        /* \"#utility.yul\":194:195   */\n      dup1\n        /* \"#utility.yul\":187:199   */\n      revert\n        /* \"#utility.yul\":334:460   */\n    tag_16:\n        /* \"#utility.yul\":371:378   */\n      0x00\n        /* \"#utility.yul\":411:453   */\n      0xffffffffffffffffffffffffffffffffffffffff\n        /* \"#utility.yul\":404:409   */\n      dup3\n        /* \"#utility.yul\":400:454   */\n      and\n        /* \"#utility.yul\":389:454   */\n      swap1\n      pop\n        /* \"#utility.yul\":334:460   */\n      swap2\n      swap1\n      pop\n      jump\t// out\n        /* \"#utility.yul\":466:570   */\n    tag_17:\n        /* \"#utility.yul\":511:518   */\n      0x00\n        /* \"#utility.yul\":540:564   */\n      tag_29\n        /* \"#utility.yul\":558:563   */\n      dup3\n        /* \"#utility.yul\":540:564   */\n      tag_16\n      jump\t// in\n    tag_29:\n        /* \"#utility.yul\":529:564   */\n      swap1\n      pop\n        /* \"#utility.yul\":466:570   */\n      swap2\n      swap1\n      pop\n      jump\t// out\n        /* \"#utility.yul\":576:714   */\n    tag_18:\n        /* \"#utility.yul\":657:689   */\n      tag_31\n        /* \"#utility.yul\":683:688   */\n      dup2\n        /* \"#utility.yul\":657:689   */\n      tag_17\n      jump\t// in\n    tag_31:\n        /* \"#utility.yul\":650:655   */\n      dup2\n        /* \"#utility.yul\":647:690   */\n      eq\n        /* \"#utility.yul\":637:708   */\n      tag_32\n      jumpi\n        /* \"#utility.yul\":704:705   */\n      0x00\n        /* \"#utility.yul\":701:702   */\n      dup1\n        /* \"#utility.yul\":694:706   */\n      revert\n        /* \"#utility.yul\":637:708   */\n    tag_32:\n        /* \"#utility.yul\":576:714   */\n      pop\n      jump\t// out\n        /* \"#utility.yul\":720:875   */\n    tag_19:\n        /* \"#utility.yul\":774:779   */\n      0x00\n        /* \"#utility.yul\":812:818   */\n      dup2\n        /* \"#utility.yul\":799:819   */\n      calldataload\n        /* \"#utility.yul\":790:819   */\n      swap1\n      pop\n        /* \"#utility.yul\":828:869   */\n      tag_34\n        /* \"#utility.yul\":863:868   */\n      dup2\n        /* \"#utility.yul\":828:869   */\n      tag_18\n      jump\t// in\n    tag_34:\n        /* \"#utility.yul\":720:875   */\n      swap3\n      swap2\n      pop\n      pop\n      jump\t// out\n        /* \"#utility.yul\":881:1226   */\n    tag_5:\n        /* \"#utility.yul\":948:954   */\n      0x00\n        /* \"#utility.yul\":997:999   */\n      0x20\n        /* \"#utility.yul\":985:994   */\n      dup3\n        /* \"#utility.yul\":976:983   */\n      dup5\n        /* \"#utility.yul\":972:995   */\n      sub\n        /* \"#utility.yul\":968:1000   */\n      slt\n        /* \"#utility.yul\":965:1084   */\n      iszero\n      tag_36\n      jumpi\n        /* \"#utility.yul\":1003:1082   */\n      tag_37\n      tag_14\n      jump\t// in\n    tag_37:\n        /* \"#utility.yul\":965:1084   */\n    tag_36:\n        /* \"#utility.yul\":1123:1124   */\n      0x00\n        /* \"#utility.yul\":1148:1209   */\n      tag_38\n        /* \"#utility.yul\":1201:1208   */\n      dup5\n        /* \"#utility.yul\":1192:1198   */\n      dup3\n        /* \"#utility.yul\":1181:1190   */\n      dup6\n        /* \"#utility.yul\":1177:1199   */\n      add\n        /* \"#utility.yul\":1148:1209   */\n      tag_19\n      jump\t// in\n    tag_38:\n        /* \"#utility.yul\":1138:1209   */\n      swap2\n      pop\n        /* \"#utility.yul\":1094:1219   */\n      pop\n        /* \"#utility.yul\":881:1226   */\n      swap3\n      swap2\n      pop\n      pop\n      jump\t// out\n        /* \"#utility.yul\":1232:1401   */\n    tag_20:\n        /* \"#utility.yul\":1316:1327   */\n      0x00\n        /* \"#utility.yul\":1350:1356   */\n      dup3\n        /* \"#utility.yul\":1345:1348   */\n      dup3\n        /* \"#utility.yul\":1338:1357   */\n      mstore\n        /* \"#utility.yul\":1390:1394   */\n      0x20\n        /* \"#utility.yul\":1385:1388   */\n      dup3\n        /* \"#utility.yul\":1381:1395   */\n      add\n        /* \"#utility.yul\":1366:1395   */\n      swap1\n      pop\n        /* \"#utility.yul\":1232:1401   */\n      swap3\n      swap2\n      pop\n      pop\n      jump\t// out\n        /* \"#utility.yul\":1407:1629   */\n    tag_21:\n        /* \"#utility.yul\":1547:1581   */\n      0x457468657220616d6f756e74206d757374206265206772656174657220746861\n        /* \"#utility.yul\":1543:1544   */\n      0x00\n        /* \"#utility.yul\":1535:1541   */\n      dup3\n        /* \"#utility.yul\":1531:1545   */\n      add\n        /* \"#utility.yul\":1524:1582   */\n      mstore\n        /* \"#utility.yul\":1616:1621   */\n      0x6e20300000000000000000000000000000000000000000000000000000000000\n        /* \"#utility.yul\":1611:1613   */\n      0x20\n        /* \"#utility.yul\":1603:1609   */\n      dup3\n        /* \"#utility.yul\":1599:1614   */\n      add\n        /* \"#utility.yul\":1592:1622   */\n      mstore\n        /* \"#utility.yul\":1407:1629   */\n      pop\n      jump\t// out\n        /* \"#utility.yul\":1635:2001   */\n    tag_22:\n        /* \"#utility.yul\":1777:1780   */\n      0x00\n        /* \"#utility.yul\":1798:1865   */\n      tag_42\n        /* \"#utility.yul\":1862:1864   */\n      0x23\n        /* \"#utility.yul\":1857:1860   */\n      dup4\n        /* \"#utility.yul\":1798:1865   */\n      tag_20\n      jump\t// in\n    tag_42:\n        /* \"#utility.yul\":1791:1865   */\n      swap2\n      pop\n        /* \"#utility.yul\":1874:1967   */\n      tag_43\n        /* \"#utility.yul\":1963:1966   */\n      dup3\n        /* \"#utility.yul\":1874:1967   */\n      tag_21\n      jump\t// in\n    tag_43:\n        /* \"#utility.yul\":1992:1994   */\n      0x40\n        /* \"#utility.yul\":1987:1990   */\n      dup3\n        /* \"#utility.yul\":1983:1995   */\n      add\n        /* \"#utility.yul\":1976:1995   */\n      swap1\n      pop\n        /* \"#utility.yul\":1635:2001   */\n      swap2\n      swap1\n      pop\n      jump\t// out\n        /* \"#utility.yul\":2007:2426   */\n    tag_10:\n        /* \"#utility.yul\":2173:2177   */\n      0x00\n        /* \"#utility.yul\":2211:2213   */\n      0x20\n        /* \"#utility.yul\":2200:2209   */\n      dup3\n        /* \"#utility.yul\":2196:2214   */\n      add\n        /* \"#utility.yul\":2188:2214   */\n      swap1\n      pop\n        /* \"#utility.yul\":2260:2269   */\n      dup2\n        /* \"#utility.yul\":2254:2258   */\n      dup2\n        /* \"#utility.yul\":2250:2270   */\n      sub\n        /* \"#utility.yul\":2246:2247   */\n      0x00\n        /* \"#utility.yul\":2235:2244   */\n      dup4\n        /* \"#utility.yul\":2231:2248   */\n      add\n        /* \"#utility.yul\":2224:2271   */\n      mstore\n        /* \"#utility.yul\":2288:2419   */\n      tag_45\n        /* \"#utility.yul\":2414:2418   */\n      dup2\n        /* \"#utility.yul\":2288:2419   */\n      tag_22\n      jump\t// in\n    tag_45:\n        /* \"#utility.yul\":2280:2419   */\n      swap1\n      pop\n        /* \"#utility.yul\":2007:2426   */\n      swap2\n      swap1\n      pop\n      jump\t// out\n\n    auxdata: 0xa2646970667358221220cb27d8459ac931c34cc9245b6d86ca2779804404df403fec4cde966d9d7d072864736f6c63430008120033\n}\n",
				"bytecode": {
					"linkReferences": {},
					"object": "608060405234801561001057600080fd5b50610235806100206000396000f3fe60806040526004361061001e5760003560e01c806348c981e214610023575b600080fd5b61003d6004803603810190610038919061012f565b61003f565b005b60003411610082576040517f08c379a0000000000000000000000000000000000000000000000000000000008152600401610079906101df565b60405180910390fd5b8073ffffffffffffffffffffffffffffffffffffffff166108fc349081150290604051600060405180830381858888f193505050501580156100c8573d6000803e3d6000fd5b5050565b600080fd5b600073ffffffffffffffffffffffffffffffffffffffff82169050919050565b60006100fc826100d1565b9050919050565b61010c816100f1565b811461011757600080fd5b50565b60008135905061012981610103565b92915050565b600060208284031215610145576101446100cc565b5b60006101538482850161011a565b91505092915050565b600082825260208201905092915050565b7f457468657220616d6f756e74206d75737420626520677265617465722074686160008201527f6e20300000000000000000000000000000000000000000000000000000000000602082015250565b60006101c960238361015c565b91506101d48261016d565b604082019050919050565b600060208201905081810360008301526101f8816101bc565b905091905056fea2646970667358221220cb27d8459ac931c34cc9245b6d86ca2779804404df403fec4cde966d9d7d072864736f6c63430008120033",
					"opcodes": "PUSH1 0x80 PUSH1 0x40 MSTORE CALLVALUE DUP1 ISZERO PUSH2 0x10 JUMPI PUSH1 0x0 DUP1 REVERT JUMPDEST POP PUSH2 0x235 DUP1 PUSH2 0x20 PUSH1 0x0 CODECOPY PUSH1 0x0 RETURN INVALID PUSH1 0x80 PUSH1 0x40 MSTORE PUSH1 0x4 CALLDATASIZE LT PUSH2 0x1E JUMPI PUSH1 0x0 CALLDATALOAD PUSH1 0xE0 SHR DUP1 PUSH4 0x48C981E2 EQ PUSH2 0x23 JUMPI JUMPDEST PUSH1 0x0 DUP1 REVERT JUMPDEST PUSH2 0x3D PUSH1 0x4 DUP1 CALLDATASIZE SUB DUP2 ADD SWAP1 PUSH2 0x38 SWAP2 SWAP1 PUSH2 0x12F JUMP JUMPDEST PUSH2 0x3F JUMP JUMPDEST STOP JUMPDEST PUSH1 0x0 CALLVALUE GT PUSH2 0x82 JUMPI PUSH1 0x40 MLOAD PUSH32 0x8C379A000000000000000000000000000000000000000000000000000000000 DUP2 MSTORE PUSH1 0x4 ADD PUSH2 0x79 SWAP1 PUSH2 0x1DF JUMP JUMPDEST PUSH1 0x40 MLOAD DUP1 SWAP2 SUB SWAP1 REVERT JUMPDEST DUP1 PUSH20 0xFFFFFFFFFFFFFFFFFFFFFFFFFFFFFFFFFFFFFFFF AND PUSH2 0x8FC CALLVALUE SWAP1 DUP2 ISZERO MUL SWAP1 PUSH1 0x40 MLOAD PUSH1 0x0 PUSH1 0x40 MLOAD DUP1 DUP4 SUB DUP2 DUP6 DUP9 DUP9 CALL SWAP4 POP POP POP POP ISZERO DUP1 ISZERO PUSH2 0xC8 JUMPI RETURNDATASIZE PUSH1 0x0 DUP1 RETURNDATACOPY RETURNDATASIZE PUSH1 0x0 REVERT JUMPDEST POP POP JUMP JUMPDEST PUSH1 0x0 DUP1 REVERT JUMPDEST PUSH1 0x0 PUSH20 0xFFFFFFFFFFFFFFFFFFFFFFFFFFFFFFFFFFFFFFFF DUP3 AND SWAP1 POP SWAP2 SWAP1 POP JUMP JUMPDEST PUSH1 0x0 PUSH2 0xFC DUP3 PUSH2 0xD1 JUMP JUMPDEST SWAP1 POP SWAP2 SWAP1 POP JUMP JUMPDEST PUSH2 0x10C DUP2 PUSH2 0xF1 JUMP JUMPDEST DUP2 EQ PUSH2 0x117 JUMPI PUSH1 0x0 DUP1 REVERT JUMPDEST POP JUMP JUMPDEST PUSH1 0x0 DUP2 CALLDATALOAD SWAP1 POP PUSH2 0x129 DUP2 PUSH2 0x103 JUMP JUMPDEST SWAP3 SWAP2 POP POP JUMP JUMPDEST PUSH1 0x0 PUSH1 0x20 DUP3 DUP5 SUB SLT ISZERO PUSH2 0x145 JUMPI PUSH2 0x144 PUSH2 0xCC JUMP JUMPDEST JUMPDEST PUSH1 0x0 PUSH2 0x153 DUP5 DUP3 DUP6 ADD PUSH2 0x11A JUMP JUMPDEST SWAP2 POP POP SWAP3 SWAP2 POP POP JUMP JUMPDEST PUSH1 0x0 DUP3 DUP3 MSTORE PUSH1 0x20 DUP3 ADD SWAP1 POP SWAP3 SWAP2 POP POP JUMP JUMPDEST PUSH32 0x457468657220616D6F756E74206D757374206265206772656174657220746861 PUSH1 0x0 DUP3 ADD MSTORE PUSH32 0x6E20300000000000000000000000000000000000000000000000000000000000 PUSH1 0x20 DUP3 ADD MSTORE POP JUMP JUMPDEST PUSH1 0x0 PUSH2 0x1C9 PUSH1 0x23 DUP4 PUSH2 0x15C JUMP JUMPDEST SWAP2 POP PUSH2 0x1D4 DUP3 PUSH2 0x16D JUMP JUMPDEST PUSH1 0x40 DUP3 ADD SWAP1 POP SWAP2 SWAP1 POP JUMP JUMPDEST PUSH1 0x0 PUSH1 0x20 DUP3 ADD SWAP1 POP DUP2 DUP2 SUB PUSH1 0x0 DUP4 ADD MSTORE PUSH2 0x1F8 DUP2 PUSH2 0x1BC JUMP JUMPDEST SWAP1 POP SWAP2 SWAP1 POP JUMP INVALID LOG2 PUSH5 0x6970667358 0x22 SLT KECCAK256 0xCB 0x27 0xD8 GASLIMIT SWAP11 0xC9 BALANCE 0xC3 0x4C 0xC9 0x24 JUMPDEST PUSH14 0x86CA2779804404DF403FEC4CDE96 PUSH14 0x9D7D072864736F6C634300081200 CALLER "
				},
				"gasEstimates": {
					"creation": {
						"codeDepositCost": "113000",
						"executionCost": "159",
						"totalCost": "113159"
					},
					"external": {
						"sendEther(address)": "infinite"
					}
				},
				"methodIdentifiers": {
					"sendEther(address)": "48c981e2"
				}
			},
			"storageLayout": {
				"storage": [],
				"types": null
			},
			"userdoc": {
				"kind": "user",
				"methods": {},
				"version": 1
			}
		}
	}
}